:060000000C9443000C9477
:1000060000000C9400000C9400000C9400000C946A
:1000160000000C9400000C9400000C9400000C945A
:1000260000000C9400000C9400000C9400000C944A
:1000360000000C9400000C9400000C9400000C943A
:1000460000000C9400000C9400000C9400007375E2
:100056006875207275616E67616E3A200000010056
:100066002D4E414E00494E46000080C00F006002F2
:10007600540001007F026400020083027000000049
:10008600F894EE27ECBBF1E0FBBFEBBFE5BFF8E170
:10009600F1BDE1BD8DE0A2E0BB27ED938A95E9F7BE
:1000A60080E098E0A0E6ED930197E9F7E2E7F0E05B
:1000B60085919591009761F0A591B5910590159060
:1000C600BF01F00105900D920197E1F7FB01F0CF1A
:1000D600EFE5EDBFE8E0EEBFC0E6D2E00C94A40089
:1000E600AA93E881E06CE7B988E28A95F1F7369A37
:1000F600349BFECF349AE4B1F5B10C948002A1E0B2
:10010600EFDFAFE6B2E0662777270E94AE030E94D4
:10011600F8040895A0916F02B09170028091710267
:1001260090917202EBECF0E163E070E40E948604C9
:10013600E0937302F09374026093750270937602F3
:100146000895E0E0EBBBEABBE8BBE7BBE5BBE4BB7D
:10015600E2BBEFEFE1BBE0E0E3BFE2BFECBFEFBD28
:10016600EEBDEDBDECBDE7BDE6BDEBBDEABDE9BD4F
:10017600E8BDE2BDE5BDE4BDE3BDE5BFE4BFE9BF63
:10018600EAB9E0E8E8B9E0E0E0BFE0ECE7B9E4E8C6
:10019600E6B9E0E0EDB9E6BFA0E10E9454020E9494
:1001A6002202E0E0EA93A0E00E941502A0E6B2E097
:1001B6000E944302A4DFAEDFE0917302F091740265
:1001C60060917502709176020E940C05E0E0EA9358
:1001D600A7E7B2E00E942E01E0E0EA93A1E00E94C8
:1001E6001502A7E7B2E00E9443020E94D702E0E0B0
:1001F600F0E060EE71E40E94CB0468F00E94D70242
:10020600E0E0F0E060E172E40E94CB0419F010F047
:100216000C940E0101C002C0809A01C080980E9411
:10022600D702E0E0F0E064E172E40E94CB0438F02B
:100236000E94E00219F010F00C94220101C002C0E5
:10024600819A01C081980E94E00210F0829A01C052
:100256008298B0CFFFCFBA93AA932497E0E0E883C1
:10026600E983EA83EFE3EB831A930A93EB85FC8534
:10027600EF3FAFEFFA0739F40E94E802A6E6B0E0D6
:100286000E94CA02ABC0EF3FAFE7FA0739F40E94FB
:10029600E802A7E6B0E00E94CA02A0C0AC85AA2385
:1002A60062F4E985FA856B857C850E9442030E948B
:1002B600ED020E94F202EDE2EC93A885A73010F061
:1002C600E6E0E8871885E12F1150E03039F00E940A
:1002D600F9020E94FE020E940503F5CF0E940A035E
:1002E6000E94E8030E94ED0210E0E0E0F0E060E822
:1002F6007FE30E9405030E940A030E94CB0488F054
:100306000E94F9020E9413030E9405031F5F173221
:1003160038F00E94E802ABE6B0E00E94CA025EC076
:10032600EACF103029F40E94F202E0E3EC932CC0ED
:10033600E12F1150E03041F10E94F9020E94FE02C5
:10034600A0E0B0E080E09FE30E94E803DF01CB017C
:100356000E94B3020E9405030E940A030E948604BB
:100366000E9475030E2F0E94F2020E941A030E9439
:10037600F9020E94F3040E94AE030E9438040E9410
:1003860020030E942503D4CFE885E03019F10E94AE
:10039600F202EEE2EC93E885E150E887EF5FD1F0F8
:1003A6000E9420030E9413030E94ED02E985FA854C
:1003B6006B857C850E9475030E2F0E94F2020E94B7
:1003C6001A030E9420030E94F3040E94AE030E94B7
:1003D6002503E1CFAE81BF81E0E0EC93198108816E
:1003E6002D960895AA93E5B3EF70AE2FE881E07FCE
:1003F600EA2BE5BB88E08A95F1F7AA9A84E18A950B
:10040600F1F7AA9884E18A95F1F777C0AA93A881B3
:10041600E9DFE881E295E883A881E4DF88EC8A9544
:10042600F1F76BC0AA93E881F0E0ED57FD4FE0814C
:10043600A981AE0FEBDF5980488022960895A2E08D
:100446000E942A03ACE0E2DFA1E00E942A03E0E07A
:100456004E2E5E2E0895AA93A881AA3011F0571445
:1004660048F0E0E0EA934394A42DDCDFA881AA30AB
:1004760009F443C05394A89AA881C8DFA8983DC040
:10048600BA93AA931A93A981BA81ED91A983BA83E3
:100496001E2FE03019F0A12FDEDFF5CF188123964D
:1004A6000895AA93E4B3E06FE4BBA29AA09AA19A36
:1004B600AA98A898A9987880E881E058E0938502E0
:1004C600E881E054E0938602A4E1B0E00E9438039C
:1004D6000E9430030E9430030E943003A0E282DFB4
:1004E6008CE291E00197F1F7A8E290DFA4E08EDFBD
:1004F600A5E88CDFA6E08ADFA2DF219608950E9498
:1005060011057B816A81F981E88177FB770F67FDA9
:100516007160972F9E5781F078F0983190F4AA2752
:10052600BB27882708948795B795A7959A95D1F7FD
:10053600EA23FB23682305C0E8947727EE27FF27E5
:1005460066276F77769508F4606877F9A991B9916F
:1005560089919991EA17FB076807790797FB089530
:100566000E9411050E9402050E9482020E94070550
:1005760019F40E94FD0409C0E6F70E94FD04A0E0FC
:10058600B0E080E89FE30E94E10324960895BA93C1
:10059600AA93E991F991A991B991CD0105900D928E
:1005A6000020E1F7FC010895A0917302B091740256
:1005B60080917502909176020895F6DFE0E0F0E012
:1005C60060E272E40E94CB040895EE81FF81FA9303
:1005D600EA930895E987FA876B877C870895AE8149
:1005E600BF811196AE83BF8311970895AA81BB81FF
:1005F6008C819D810895EDECFCEC6CEC7DE30E9412
:1006060038040895EA83FB836C837D830895EA8129
:10061600FB816C817D81A985BA858B859C85089532
:10062600E0E0F0E060E271E40E9438040895E02F13
:10063600E05DEC93E02FF0E00895A985BA858B85FF
:100646009C8508950E9416050E94E103C3CF0E946F
:100656000902A3E0B0E00C943803A0E30E94F50180
:100666008CE291E00197F1F70895109639F088EB46
:100676009BE00197F1F7A8951197C9F70895309770
:100686006040704009F070580895552342F4503880
:1006960011F4E0FF04C03196691F791F6BF050E832
:1006A600572711F45F93CFC05F3F31F0660F000C00
:1006B60057956795752F08955F9300200AF0CFC070
:1006C600C8C050E8192E1522880F991F9527550F77
:1006D600879550E8072E0522660F771F7527550F59
:1006E60067950895689401C0E8945F93F2DF7038C7
:1006F60018F07F3F08F4A7C056E1571BAAF451959E
:1007060058300EF4593030F0EFEFFFEF6FEF7FE720
:1007160077F91AC077275523B9F0EE0FFF1F661F2A
:10072600771F5A95D1F710C07727583028F0EF2F4A
:10073600F62F672F5850F9CF552331F076956795E8
:10074600F795E7955A95D1F700200AF441D15F91C4
:100756000895689401C0E894309760407040B1F005
:10076600002426F0772312F4009432D1172E7EE16E
:10077600112032F07A95EE0FFF1F661F111CF9CF7C
:10078600EF2FF62F612D5F938ADF5F9108954F93C8
:10079600AF01FD01DA01AB01BC01CA01402D012CFC
:1007A600142E4F910895EA0FFB1F681F0895E095D8
:1007B600F0956095EF5FFF4F6F4F08955F9381DF70
:1007C600903871F150E8152604C05F937ADF9038AF
:1007D60039F1703821F1572F591B2BF112F4D7DF5D
:1007E600FACF583118F0AA27BB278827583028F0A7
:1007F600AB2FB82F88275850F9CF552329F0869567
:10080600B795A7955A95D9F7502D512572F0CBDF9C
:1008160038F46795F795E795739513F420C0B7DF1D
:100826003EDF5F910895D8F7FBCFEA1BFB0B680B01
:1008360051F010F40094BBDF662392F3EE0FFF1F16
:10084600661F7A95CBF7EE27FF27662777275F91F6
:100856000895EFEFFFEF6FE77FEF5F910895EFEFFA
:10086600FFEF6FE77FE75F9108955F932ADF7038A8
:1008760051F3903841F301240894791F23F41CF3B3
:1008860000203AF3ECCF0F921F932F933F934F9391
:10089600112722279927689FA0018F9F302D410D90
:1008A600591F6B9F300D411D591F8E9F27D0BF9F2B
:1008B60025D06A9F23D0BE9F1DD0AF9F1BD0AE9F71
:1008C600110D291F391F491F591FE32FF42F652FBB
:1008D600522F4F913F912F911F910F9066232AF02F
:1008E600550FEE1FFF1F661F02C073954BF2CDDE3C
:1008F6005F910895100D211D391F02C0200D311D75
:10090600491F591F08955F93DCDE703821F41120CA
:100916000AF49FCFA4CF903809F495CF0124089408
:10092600970B1BF4D4F30020F3CF792F1F932F934B
:100936003F934F9311241127222733274427552706
:1009460090E2AE17BF078607410730F0AE1BBF0B1C
:10095600860B410B089401C08894551F221F331F34
:10096600111CAA1FBB1F881F441F9A9551F7F90136
:10097600612D4F913F912F911F91662332F0550FB4
:10098600EE1FFF1F661F7A9543F27FDE5F91089583
:1009960099239AF0772342F0971748F029F4AE1777
:1009A600BF07860720F031F09894889408959894AC
:1009B600089408951894889408957723C2F7971792
:1009C60098F3A9F7EA17FB07680788F399F3ECCFC2
:1009D600F09560957095E195FF4F6F4F7F4F0895A5
:1009E6006F2F660F660B762F0895ED93FD936D932B
:1009F6007C930895E881F9816A817B810895A881B5
:100A0600B9818A819B810895E883F9836A837B8310
:100A160008957A936A93FA93EA9308959A938A9338
:100A2600BA93AA930895182E862F612D192E972F03
:100A3600712D1B2EBF2FF12D1A2EAE2FE12D0895ED
:00000001FF
